{
  "_format": "hh-sol-artifact-1",
  "contractName": "CredentialRegistry",
  "sourceName": "contracts/CredentialRegistry.sol",
  "abi": [
    {
      "inputs": [],
      "stateMutability": "nonpayable",
      "type": "constructor"
    },
    {
      "anonymous": false,
      "inputs": [
        {
          "indexed": false,
          "internalType": "string",
          "name": "credentialID",
          "type": "string"
        },
        {
          "indexed": true,
          "internalType": "address",
          "name": "issuer",
          "type": "address"
        },
        {
          "indexed": false,
          "internalType": "uint256",
          "name": "timestamp",
          "type": "uint256"
        }
      ],
      "name": "CredentialRegistered",
      "type": "event"
    },
    {
      "inputs": [
        {
          "internalType": "bytes32",
          "name": "",
          "type": "bytes32"
        }
      ],
      "name": "credentials",
      "outputs": [
        {
          "internalType": "string",
          "name": "credentialID",
          "type": "string"
        },
        {
          "internalType": "address",
          "name": "issuer",
          "type": "address"
        },
        {
          "internalType": "uint256",
          "name": "timestamp",
          "type": "uint256"
        },
        {
          "internalType": "bool",
          "name": "valid",
          "type": "bool"
        }
      ],
      "stateMutability": "view",
      "type": "function"
    },
    {
      "inputs": [
        {
          "internalType": "string",
          "name": "_credentialID",
          "type": "string"
        }
      ],
      "name": "getCredentialInfo",
      "outputs": [
        {
          "components": [
            {
              "internalType": "string",
              "name": "credentialID",
              "type": "string"
            },
            {
              "internalType": "address",
              "name": "issuer",
              "type": "address"
            },
            {
              "internalType": "uint256",
              "name": "timestamp",
              "type": "uint256"
            },
            {
              "internalType": "bool",
              "name": "valid",
              "type": "bool"
            }
          ],
          "internalType": "struct CredentialRegistry.Credential",
          "name": "",
          "type": "tuple"
        }
      ],
      "stateMutability": "view",
      "type": "function"
    },
    {
      "inputs": [
        {
          "internalType": "string",
          "name": "_credentialID",
          "type": "string"
        }
      ],
      "name": "isCredentialValid",
      "outputs": [
        {
          "internalType": "bool",
          "name": "",
          "type": "bool"
        }
      ],
      "stateMutability": "view",
      "type": "function"
    },
    {
      "inputs": [],
      "name": "owner",
      "outputs": [
        {
          "internalType": "address",
          "name": "",
          "type": "address"
        }
      ],
      "stateMutability": "view",
      "type": "function"
    },
    {
      "inputs": [
        {
          "internalType": "string",
          "name": "_credentialID",
          "type": "string"
        }
      ],
      "name": "registerCredential",
      "outputs": [],
      "stateMutability": "nonpayable",
      "type": "function"
    }
  ],
  "bytecode": "0x608060405234801561001057600080fd5b50336000806101000a81548173ffffffffffffffffffffffffffffffffffffffff021916908373ffffffffffffffffffffffffffffffffffffffff160217905550610f34806100606000396000f3fe608060405234801561001057600080fd5b50600436106100575760003560e01c8063299d03481461005c5780637e6712591461008f5780638da5cb5b146100ab578063c994edf3146100c9578063d37428ef146100f9575b600080fd5b61007660048036038101906100719190610697565b610129565b60405161008694939291906107c9565b60405180910390f35b6100a960048036038101906100a4919061094a565b61020e565b005b6100b36103c8565b6040516100c09190610993565b60405180910390f35b6100e360048036038101906100de919061094a565b6103ec565b6040516100f091906109ae565b60405180910390f35b610113600480360381019061010e919061094a565b610444565b6040516101209190610aa3565b60405180910390f35b600160205280600052604060002060009150905080600001805461014c90610af4565b80601f016020809104026020016040519081016040528092919081815260200182805461017890610af4565b80156101c55780601f1061019a576101008083540402835291602001916101c5565b820191906000526020600020905b8154815290600101906020018083116101a857829003601f168201915b5050505050908060010160009054906101000a900473ffffffffffffffffffffffffffffffffffffffff16908060020154908060030160009054906101000a900460ff16905084565b6000816040516020016102219190610b61565b6040516020818303038152906040528051906020012090506001600082815260200190815260200160002060030160009054906101000a900460ff161561029d576040517f08c379a000000000000000000000000000000000000000000000000000000000815260040161029490610bc4565b60405180910390fd5b60405180608001604052808381526020013373ffffffffffffffffffffffffffffffffffffffff168152602001428152602001600115158152506001600083815260200190815260200160002060008201518160000190816102ff9190610d90565b5060208201518160010160006101000a81548173ffffffffffffffffffffffffffffffffffffffff021916908373ffffffffffffffffffffffffffffffffffffffff1602179055506040820151816002015560608201518160030160006101000a81548160ff0219169083151502179055509050503373ffffffffffffffffffffffffffffffffffffffff167f10ea04f90964d6096101e9e4d6574eeb9a1dd17e118a88daa46e752130d3939c83426040516103bc929190610e62565b60405180910390a25050565b60008054906101000a900473ffffffffffffffffffffffffffffffffffffffff1681565b600080826040516020016104009190610b61565b6040516020818303038152906040528051906020012090506001600082815260200190815260200160002060030160009054906101000a900460ff16915050919050565b61044c61060d565b60008260405160200161045f9190610b61565b6040516020818303038152906040528051906020012090506001600082815260200190815260200160002060030160009054906101000a900460ff166104da576040517f08c379a00000000000000000000000000000000000000000000000000000000081526004016104d190610ede565b60405180910390fd5b6001600082815260200190815260200160002060405180608001604052908160008201805461050890610af4565b80601f016020809104026020016040519081016040528092919081815260200182805461053490610af4565b80156105815780601f1061055657610100808354040283529160200191610581565b820191906000526020600020905b81548152906001019060200180831161056457829003601f168201915b505050505081526020016001820160009054906101000a900473ffffffffffffffffffffffffffffffffffffffff1673ffffffffffffffffffffffffffffffffffffffff1673ffffffffffffffffffffffffffffffffffffffff168152602001600282015481526020016003820160009054906101000a900460ff161515151581525050915050919050565b604051806080016040528060608152602001600073ffffffffffffffffffffffffffffffffffffffff168152602001600081526020016000151581525090565b6000604051905090565b600080fd5b600080fd5b6000819050919050565b61067481610661565b811461067f57600080fd5b50565b6000813590506106918161066b565b92915050565b6000602082840312156106ad576106ac610657565b5b60006106bb84828501610682565b91505092915050565b600081519050919050565b600082825260208201905092915050565b60005b838110156106fe5780820151818401526020810190506106e3565b60008484015250505050565b6000601f19601f8301169050919050565b6000610726826106c4565b61073081856106cf565b93506107408185602086016106e0565b6107498161070a565b840191505092915050565b600073ffffffffffffffffffffffffffffffffffffffff82169050919050565b600061077f82610754565b9050919050565b61078f81610774565b82525050565b6000819050919050565b6107a881610795565b82525050565b60008115159050919050565b6107c3816107ae565b82525050565b600060808201905081810360008301526107e3818761071b565b90506107f26020830186610786565b6107ff604083018561079f565b61080c60608301846107ba565b95945050505050565b600080fd5b600080fd5b7f4e487b7100000000000000000000000000000000000000000000000000000000600052604160045260246000fd5b6108578261070a565b810181811067ffffffffffffffff821117156108765761087561081f565b5b80604052505050565b600061088961064d565b9050610895828261084e565b919050565b600067ffffffffffffffff8211156108b5576108b461081f565b5b6108be8261070a565b9050602081019050919050565b82818337600083830152505050565b60006108ed6108e88461089a565b61087f565b9050828152602081018484840111156109095761090861081a565b5b6109148482856108cb565b509392505050565b600082601f83011261093157610930610815565b5b81356109418482602086016108da565b91505092915050565b6000602082840312156109605761095f610657565b5b600082013567ffffffffffffffff81111561097e5761097d61065c565b5b61098a8482850161091c565b91505092915050565b60006020820190506109a86000830184610786565b92915050565b60006020820190506109c360008301846107ba565b92915050565b600082825260208201905092915050565b60006109e5826106c4565b6109ef81856109c9565b93506109ff8185602086016106e0565b610a088161070a565b840191505092915050565b610a1c81610774565b82525050565b610a2b81610795565b82525050565b610a3a816107ae565b82525050565b60006080830160008301518482036000860152610a5d82826109da565b9150506020830151610a726020860182610a13565b506040830151610a856040860182610a22565b506060830151610a986060860182610a31565b508091505092915050565b60006020820190508181036000830152610abd8184610a40565b905092915050565b7f4e487b7100000000000000000000000000000000000000000000000000000000600052602260045260246000fd5b60006002820490506001821680610b0c57607f821691505b602082108103610b1f57610b1e610ac5565b5b50919050565b600081905092915050565b6000610b3b826106c4565b610b458185610b25565b9350610b558185602086016106e0565b80840191505092915050565b6000610b6d8284610b30565b915081905092915050565b7f43726564656e7469616c20616c72656164792072656769737465726564000000600082015250565b6000610bae601d836106cf565b9150610bb982610b78565b602082019050919050565b60006020820190508181036000830152610bdd81610ba1565b9050919050565b60008190508160005260206000209050919050565b60006020601f8301049050919050565b600082821b905092915050565b600060088302610c467fffffffffffffffffffffffffffffffffffffffffffffffffffffffffffffffff82610c09565b610c508683610c09565b95508019841693508086168417925050509392505050565b6000819050919050565b6000610c8d610c88610c8384610795565b610c68565b610795565b9050919050565b6000819050919050565b610ca783610c72565b610cbb610cb382610c94565b848454610c16565b825550505050565b600090565b610cd0610cc3565b610cdb818484610c9e565b505050565b5b81811015610cff57610cf4600082610cc8565b600181019050610ce1565b5050565b601f821115610d4457610d1581610be4565b610d1e84610bf9565b81016020851015610d2d578190505b610d41610d3985610bf9565b830182610ce0565b50505b505050565b600082821c905092915050565b6000610d6760001984600802610d49565b1980831691505092915050565b6000610d808383610d56565b9150826002028217905092915050565b610d99826106c4565b67ffffffffffffffff811115610db257610db161081f565b5b610dbc8254610af4565b610dc7828285610d03565b600060209050601f831160018114610dfa5760008415610de8578287015190505b610df28582610d74565b865550610e5a565b601f198416610e0886610be4565b60005b82811015610e3057848901518255600182019150602085019450602081019050610e0b565b86831015610e4d5784890151610e49601f891682610d56565b8355505b6001600288020188555050505b505050505050565b60006040820190508181036000830152610e7c818561071b565b9050610e8b602083018461079f565b9392505050565b7f43726564656e7469616c206e6f7420666f756e64000000000000000000000000600082015250565b6000610ec86014836106cf565b9150610ed382610e92565b602082019050919050565b60006020820190508181036000830152610ef781610ebb565b905091905056fea2646970667358221220cd192790a4f5e6d2554da03ed2d5bef07985acd7a1569b812ebe7853aaf6722164736f6c63430008130033",
  "linkReferences": {},
  "deployedLinkReferences": {}
}