{
  "_format": "hh-sol-artifact-1",
  "contractName": "VerificationLog",
  "sourceName": "contracts/VerificationLog.sol",
  "abi": [
    {
      "inputs": [],
      "stateMutability": "nonpayable",
      "type": "constructor"
    },
    {
      "inputs": [
        {
          "internalType": "address",
          "name": "owner",
          "type": "address"
        }
      ],
      "name": "OwnableInvalidOwner",
      "type": "error"
    },
    {
      "inputs": [
        {
          "internalType": "address",
          "name": "account",
          "type": "address"
        }
      ],
      "name": "OwnableUnauthorizedAccount",
      "type": "error"
    },
    {
      "anonymous": false,
      "inputs": [
        {
          "indexed": false,
          "internalType": "string",
          "name": "credentialID",
          "type": "string"
        },
        {
          "indexed": false,
          "internalType": "address",
          "name": "verifier",
          "type": "address"
        },
        {
          "indexed": false,
          "internalType": "uint256",
          "name": "timestamp",
          "type": "uint256"
        },
        {
          "indexed": false,
          "internalType": "bool",
          "name": "valid",
          "type": "bool"
        }
      ],
      "name": "CredentialVerified",
      "type": "event"
    },
    {
      "anonymous": false,
      "inputs": [
        {
          "indexed": true,
          "internalType": "address",
          "name": "previousOwner",
          "type": "address"
        },
        {
          "indexed": true,
          "internalType": "address",
          "name": "newOwner",
          "type": "address"
        }
      ],
      "name": "OwnershipTransferred",
      "type": "event"
    },
    {
      "inputs": [
        {
          "internalType": "string",
          "name": "credentialID",
          "type": "string"
        },
        {
          "internalType": "address",
          "name": "verifier",
          "type": "address"
        },
        {
          "internalType": "bool",
          "name": "valid",
          "type": "bool"
        }
      ],
      "name": "logVerification",
      "outputs": [],
      "stateMutability": "nonpayable",
      "type": "function"
    },
    {
      "inputs": [],
      "name": "owner",
      "outputs": [
        {
          "internalType": "address",
          "name": "",
          "type": "address"
        }
      ],
      "stateMutability": "view",
      "type": "function"
    },
    {
      "inputs": [],
      "name": "renounceOwnership",
      "outputs": [],
      "stateMutability": "nonpayable",
      "type": "function"
    },
    {
      "inputs": [
        {
          "internalType": "address",
          "name": "newOwner",
          "type": "address"
        }
      ],
      "name": "transferOwnership",
      "outputs": [],
      "stateMutability": "nonpayable",
      "type": "function"
    }
  ],
  "bytecode": "0x608060405234801561001057600080fd5b5033600073ffffffffffffffffffffffffffffffffffffffff168173ffffffffffffffffffffffffffffffffffffffff16036100845760006040517f1e4fbdf700000000000000000000000000000000000000000000000000000000815260040161007b919061019e565b60405180910390fd5b6100938161009960201b60201c565b506101b9565b60008060009054906101000a900473ffffffffffffffffffffffffffffffffffffffff169050816000806101000a81548173ffffffffffffffffffffffffffffffffffffffff021916908373ffffffffffffffffffffffffffffffffffffffff1602179055508173ffffffffffffffffffffffffffffffffffffffff168173ffffffffffffffffffffffffffffffffffffffff167f8be0079c531659141344cd1fd0a4f28419497f9722a3daafe3b4186f6b6457e060405160405180910390a35050565b600073ffffffffffffffffffffffffffffffffffffffff82169050919050565b60006101888261015d565b9050919050565b6101988161017d565b82525050565b60006020820190506101b3600083018461018f565b92915050565b6106f0806101c86000396000f3fe608060405234801561001057600080fd5b506004361061004c5760003560e01c8063715018a6146100515780637bae74951461005b5780638da5cb5b14610077578063f2fde38b14610095575b600080fd5b6100596100b1565b005b61007560048036038101906100709190610501565b6100c5565b005b61007f61010f565b60405161008c919061057f565b60405180910390f35b6100af60048036038101906100aa919061059a565b610138565b005b6100b96101be565b6100c36000610245565b565b6100cd6101be565b7fb80fa8d08da1b43058ab14b5ef3d42315f4347d077e66510b68dead1d03f762d83834284604051610102949392919061066e565b60405180910390a1505050565b60008060009054906101000a900473ffffffffffffffffffffffffffffffffffffffff16905090565b6101406101be565b600073ffffffffffffffffffffffffffffffffffffffff168173ffffffffffffffffffffffffffffffffffffffff16036101b25760006040517f1e4fbdf70000000000000000000000000000000000000000000000000000000081526004016101a9919061057f565b60405180910390fd5b6101bb81610245565b50565b6101c6610309565b73ffffffffffffffffffffffffffffffffffffffff166101e461010f565b73ffffffffffffffffffffffffffffffffffffffff161461024357610207610309565b6040517f118cdaa700000000000000000000000000000000000000000000000000000000815260040161023a919061057f565b60405180910390fd5b565b60008060009054906101000a900473ffffffffffffffffffffffffffffffffffffffff169050816000806101000a81548173ffffffffffffffffffffffffffffffffffffffff021916908373ffffffffffffffffffffffffffffffffffffffff1602179055508173ffffffffffffffffffffffffffffffffffffffff168173ffffffffffffffffffffffffffffffffffffffff167f8be0079c531659141344cd1fd0a4f28419497f9722a3daafe3b4186f6b6457e060405160405180910390a35050565b600033905090565b6000604051905090565b600080fd5b600080fd5b600080fd5b600080fd5b6000601f19601f8301169050919050565b7f4e487b7100000000000000000000000000000000000000000000000000000000600052604160045260246000fd5b6103788261032f565b810181811067ffffffffffffffff8211171561039757610396610340565b5b80604052505050565b60006103aa610311565b90506103b6828261036f565b919050565b600067ffffffffffffffff8211156103d6576103d5610340565b5b6103df8261032f565b9050602081019050919050565b82818337600083830152505050565b600061040e610409846103bb565b6103a0565b90508281526020810184848401111561042a5761042961032a565b5b6104358482856103ec565b509392505050565b600082601f83011261045257610451610325565b5b81356104628482602086016103fb565b91505092915050565b600073ffffffffffffffffffffffffffffffffffffffff82169050919050565b60006104968261046b565b9050919050565b6104a68161048b565b81146104b157600080fd5b50565b6000813590506104c38161049d565b92915050565b60008115159050919050565b6104de816104c9565b81146104e957600080fd5b50565b6000813590506104fb816104d5565b92915050565b60008060006060848603121561051a5761051961031b565b5b600084013567ffffffffffffffff81111561053857610537610320565b5b6105448682870161043d565b9350506020610555868287016104b4565b9250506040610566868287016104ec565b9150509250925092565b6105798161048b565b82525050565b60006020820190506105946000830184610570565b92915050565b6000602082840312156105b0576105af61031b565b5b60006105be848285016104b4565b91505092915050565b600081519050919050565b600082825260208201905092915050565b60005b838110156106015780820151818401526020810190506105e6565b60008484015250505050565b6000610618826105c7565b61062281856105d2565b93506106328185602086016105e3565b61063b8161032f565b840191505092915050565b6000819050919050565b61065981610646565b82525050565b610668816104c9565b82525050565b60006080820190508181036000830152610688818761060d565b90506106976020830186610570565b6106a46040830185610650565b6106b1606083018461065f565b9594505050505056fea26469706673582212206d038015276e5379177d2a3d1169a33bfb04dc53d1b4c79cc3553e9885f3f55464736f6c63430008140033",
  "linkReferences": {},
  "deployedLinkReferences": {}
}