{
  "_format": "hh-sol-artifact-1",
  "contractName": "UserRegistry",
  "sourceName": "contracts/UserRegistry.sol",
  "abi": [
    {
      "anonymous": false,
      "inputs": [
        {
          "indexed": false,
          "internalType": "string",
          "name": "did",
          "type": "string"
        }
      ],
      "name": "DIDRegisteredLog",
      "type": "event"
    },
    {
      "anonymous": false,
      "inputs": [
        {
          "indexed": true,
          "internalType": "address",
          "name": "oldOwner",
          "type": "address"
        },
        {
          "indexed": true,
          "internalType": "address",
          "name": "newOwner",
          "type": "address"
        }
      ],
      "name": "OwnershipTransferred",
      "type": "event"
    },
    {
      "anonymous": false,
      "inputs": [
        {
          "indexed": true,
          "internalType": "address",
          "name": "user",
          "type": "address"
        },
        {
          "indexed": false,
          "internalType": "string",
          "name": "did",
          "type": "string"
        }
      ],
      "name": "UserDIDRegistered",
      "type": "event"
    },
    {
      "inputs": [
        {
          "internalType": "string",
          "name": "did",
          "type": "string"
        }
      ],
      "name": "getAddressFromDID",
      "outputs": [
        {
          "internalType": "address",
          "name": "",
          "type": "address"
        }
      ],
      "stateMutability": "view",
      "type": "function"
    },
    {
      "inputs": [
        {
          "internalType": "address",
          "name": "user",
          "type": "address"
        }
      ],
      "name": "getDIDs",
      "outputs": [
        {
          "internalType": "string[]",
          "name": "",
          "type": "string[]"
        }
      ],
      "stateMutability": "view",
      "type": "function"
    },
    {
      "inputs": [
        {
          "internalType": "string",
          "name": "did",
          "type": "string"
        }
      ],
      "name": "isDIDRegistered",
      "outputs": [
        {
          "internalType": "bool",
          "name": "",
          "type": "bool"
        }
      ],
      "stateMutability": "view",
      "type": "function"
    },
    {
      "inputs": [],
      "name": "owner",
      "outputs": [
        {
          "internalType": "address",
          "name": "",
          "type": "address"
        }
      ],
      "stateMutability": "view",
      "type": "function"
    },
    {
      "inputs": [
        {
          "internalType": "address",
          "name": "user",
          "type": "address"
        },
        {
          "internalType": "string",
          "name": "did",
          "type": "string"
        }
      ],
      "name": "registerUser",
      "outputs": [],
      "stateMutability": "nonpayable",
      "type": "function"
    },
    {
      "inputs": [
        {
          "internalType": "address",
          "name": "newOwner",
          "type": "address"
        }
      ],
      "name": "transferOwnership",
      "outputs": [],
      "stateMutability": "nonpayable",
      "type": "function"
    }
  ],
  "bytecode": "0x608060405234801561001057600080fd5b50336000806101000a81548173ffffffffffffffffffffffffffffffffffffffff021916908373ffffffffffffffffffffffffffffffffffffffff16021790555061116a806100606000396000f3fe608060405234801561001057600080fd5b50600436106100625760003560e01c80630ea126f9146100675780631de3f1dc146100835780638da5cb5b146100b3578063b316494e146100d1578063cb6b4f1414610101578063f2fde38b14610131575b600080fd5b610081600480360381019061007c9190610968565b61014d565b005b61009d600480360381019061009891906109c4565b61043d565b6040516100aa9190610a28565b60405180910390f35b6100bb610472565b6040516100c89190610a52565b60405180910390f35b6100eb60048036038101906100e691906109c4565b610496565b6040516100f89190610a52565b60405180910390f35b61011b60048036038101906101169190610a6d565b6104de565b6040516101289190610bdb565b60405180910390f35b61014b60048036038101906101469190610a6d565b6105f6565b005b60008054906101000a900473ffffffffffffffffffffffffffffffffffffffff1673ffffffffffffffffffffffffffffffffffffffff163373ffffffffffffffffffffffffffffffffffffffff16146101db576040517f08c379a00000000000000000000000000000000000000000000000000000000081526004016101d290610c5a565b60405180910390fd5b7fe50b5aec08b1be9850ca1876183060d23c575dbbece20d3b4bbf0b5dcbbcb5cd8160405161020a9190610cb3565b60405180910390a16000815111610256576040517f08c379a000000000000000000000000000000000000000000000000000000000815260040161024d90610d21565b60405180910390fd5b6002816040516102669190610d7d565b908152602001604051809103902060009054906101000a900460ff1615816040516020016102949190610dba565b604051602081830303815290604052906102e4576040517f08c379a00000000000000000000000000000000000000000000000000000000081526004016102db9190610cb3565b60405180910390fd5b50600160008373ffffffffffffffffffffffffffffffffffffffff1673ffffffffffffffffffffffffffffffffffffffff168152602001908152602001600020819080600181540180825580915050600190039060005260206000200160009091909190915090816103569190610ff6565b5060016002826040516103699190610d7d565b908152602001604051809103902060006101000a81548160ff0219169083151502179055508160038260405161039f9190610d7d565b908152602001604051809103902060006101000a81548173ffffffffffffffffffffffffffffffffffffffff021916908373ffffffffffffffffffffffffffffffffffffffff1602179055508173ffffffffffffffffffffffffffffffffffffffff167fff0bcb3c090d1f7b6e15cde7a1cc88ef4e833e8b4c63881980d4a0a03bb59c5f826040516104319190610cb3565b60405180910390a25050565b600060028260405161044f9190610d7d565b908152602001604051809103902060009054906101000a900460ff169050919050565b60008054906101000a900473ffffffffffffffffffffffffffffffffffffffff1681565b60006003826040516104a89190610d7d565b908152602001604051809103902060009054906101000a900473ffffffffffffffffffffffffffffffffffffffff169050919050565b6060600160008373ffffffffffffffffffffffffffffffffffffffff1673ffffffffffffffffffffffffffffffffffffffff168152602001908152602001600020805480602002602001604051908101604052809291908181526020016000905b828210156105eb57838290600052602060002001805461055e90610e0f565b80601f016020809104026020016040519081016040528092919081815260200182805461058a90610e0f565b80156105d75780601f106105ac576101008083540402835291602001916105d7565b820191906000526020600020905b8154815290600101906020018083116105ba57829003601f168201915b50505050508152602001906001019061053f565b505050509050919050565b60008054906101000a900473ffffffffffffffffffffffffffffffffffffffff1673ffffffffffffffffffffffffffffffffffffffff163373ffffffffffffffffffffffffffffffffffffffff1614610684576040517f08c379a000000000000000000000000000000000000000000000000000000000815260040161067b90610c5a565b60405180910390fd5b600073ffffffffffffffffffffffffffffffffffffffff168173ffffffffffffffffffffffffffffffffffffffff16036106f3576040517f08c379a00000000000000000000000000000000000000000000000000000000081526004016106ea90611114565b60405180910390fd5b8073ffffffffffffffffffffffffffffffffffffffff1660008054906101000a900473ffffffffffffffffffffffffffffffffffffffff1673ffffffffffffffffffffffffffffffffffffffff167f8be0079c531659141344cd1fd0a4f28419497f9722a3daafe3b4186f6b6457e060405160405180910390a3806000806101000a81548173ffffffffffffffffffffffffffffffffffffffff021916908373ffffffffffffffffffffffffffffffffffffffff16021790555050565b6000604051905090565b600080fd5b600080fd5b600073ffffffffffffffffffffffffffffffffffffffff82169050919050565b60006107ef826107c4565b9050919050565b6107ff816107e4565b811461080a57600080fd5b50565b60008135905061081c816107f6565b92915050565b600080fd5b600080fd5b6000601f19601f8301169050919050565b7f4e487b7100000000000000000000000000000000000000000000000000000000600052604160045260246000fd5b6108758261082c565b810181811067ffffffffffffffff821117156108945761089361083d565b5b80604052505050565b60006108a76107b0565b90506108b3828261086c565b919050565b600067ffffffffffffffff8211156108d3576108d261083d565b5b6108dc8261082c565b9050602081019050919050565b82818337600083830152505050565b600061090b610906846108b8565b61089d565b90508281526020810184848401111561092757610926610827565b5b6109328482856108e9565b509392505050565b600082601f83011261094f5761094e610822565b5b813561095f8482602086016108f8565b91505092915050565b6000806040838503121561097f5761097e6107ba565b5b600061098d8582860161080d565b925050602083013567ffffffffffffffff8111156109ae576109ad6107bf565b5b6109ba8582860161093a565b9150509250929050565b6000602082840312156109da576109d96107ba565b5b600082013567ffffffffffffffff8111156109f8576109f76107bf565b5b610a048482850161093a565b91505092915050565b60008115159050919050565b610a2281610a0d565b82525050565b6000602082019050610a3d6000830184610a19565b92915050565b610a4c816107e4565b82525050565b6000602082019050610a676000830184610a43565b92915050565b600060208284031215610a8357610a826107ba565b5b6000610a918482850161080d565b91505092915050565b600081519050919050565b600082825260208201905092915050565b6000819050602082019050919050565b600081519050919050565b600082825260208201905092915050565b60005b83811015610b00578082015181840152602081019050610ae5565b60008484015250505050565b6000610b1782610ac6565b610b218185610ad1565b9350610b31818560208601610ae2565b610b3a8161082c565b840191505092915050565b6000610b518383610b0c565b905092915050565b6000602082019050919050565b6000610b7182610a9a565b610b7b8185610aa5565b935083602082028501610b8d85610ab6565b8060005b85811015610bc95784840389528151610baa8582610b45565b9450610bb583610b59565b925060208a01995050600181019050610b91565b50829750879550505050505092915050565b60006020820190508181036000830152610bf58184610b66565b905092915050565b600082825260208201905092915050565b7f4e6f7420746865206f776e657200000000000000000000000000000000000000600082015250565b6000610c44600d83610bfd565b9150610c4f82610c0e565b602082019050919050565b60006020820190508181036000830152610c7381610c37565b9050919050565b6000610c8582610ac6565b610c8f8185610bfd565b9350610c9f818560208601610ae2565b610ca88161082c565b840191505092915050565b60006020820190508181036000830152610ccd8184610c7a565b905092915050565b7f444944206d757374206e6f7420626520656d7074790000000000000000000000600082015250565b6000610d0b601583610bfd565b9150610d1682610cd5565b602082019050919050565b60006020820190508181036000830152610d3a81610cfe565b9050919050565b600081905092915050565b6000610d5782610ac6565b610d618185610d41565b9350610d71818560208601610ae2565b80840191505092915050565b6000610d898284610d4c565b915081905092915050565b7f44494420616c726561647920726567697374657265643a200000000000000000815250565b6000610dc582610d94565b601882019150610dd58284610d4c565b915081905092915050565b7f4e487b7100000000000000000000000000000000000000000000000000000000600052602260045260246000fd5b60006002820490506001821680610e2757607f821691505b602082108103610e3a57610e39610de0565b5b50919050565b60008190508160005260206000209050919050565b60006020601f8301049050919050565b600082821b905092915050565b600060088302610ea27fffffffffffffffffffffffffffffffffffffffffffffffffffffffffffffffff82610e65565b610eac8683610e65565b95508019841693508086168417925050509392505050565b6000819050919050565b6000819050919050565b6000610ef3610eee610ee984610ec4565b610ece565b610ec4565b9050919050565b6000819050919050565b610f0d83610ed8565b610f21610f1982610efa565b848454610e72565b825550505050565b600090565b610f36610f29565b610f41818484610f04565b505050565b5b81811015610f6557610f5a600082610f2e565b600181019050610f47565b5050565b601f821115610faa57610f7b81610e40565b610f8484610e55565b81016020851015610f93578190505b610fa7610f9f85610e55565b830182610f46565b50505b505050565b600082821c905092915050565b6000610fcd60001984600802610faf565b1980831691505092915050565b6000610fe68383610fbc565b9150826002028217905092915050565b610fff82610ac6565b67ffffffffffffffff8111156110185761101761083d565b5b6110228254610e0f565b61102d828285610f69565b600060209050601f831160018114611060576000841561104e578287015190505b6110588582610fda565b8655506110c0565b601f19841661106e86610e40565b60005b8281101561109657848901518255600182019150602085019450602081019050611071565b868310156110b357848901516110af601f891682610fbc565b8355505b6001600288020188555050505b505050505050565b7f496e76616c696420616464726573730000000000000000000000000000000000600082015250565b60006110fe600f83610bfd565b9150611109826110c8565b602082019050919050565b6000602082019050818103600083015261112d816110f1565b905091905056fea2646970667358221220626dcdd99e216191ebd8983b3ee4c5cba58fe3d412293139bd796ac28cda61c864736f6c63430008140033",
  "linkReferences": {},
  "deployedLinkReferences": {}
}