{
  "_format": "hh-sol-artifact-1",
  "contractName": "CredentialRegistry",
  "sourceName": "contracts/CredentialRegistry.sol",
  "abi": [
    {
      "inputs": [],
      "stateMutability": "nonpayable",
      "type": "constructor"
    },
    {
      "anonymous": false,
      "inputs": [
        {
          "indexed": false,
          "internalType": "string",
          "name": "credentialID",
          "type": "string"
        },
        {
          "indexed": true,
          "internalType": "address",
          "name": "issuer",
          "type": "address"
        },
        {
          "indexed": false,
          "internalType": "uint256",
          "name": "timestamp",
          "type": "uint256"
        }
      ],
      "name": "CredentialRegistered",
      "type": "event"
    },
    {
      "anonymous": false,
      "inputs": [
        {
          "indexed": false,
          "internalType": "string",
          "name": "credentialID",
          "type": "string"
        },
        {
          "indexed": true,
          "internalType": "address",
          "name": "issuer",
          "type": "address"
        },
        {
          "indexed": false,
          "internalType": "uint256",
          "name": "timestamp",
          "type": "uint256"
        }
      ],
      "name": "CredentialRevoked",
      "type": "event"
    },
    {
      "inputs": [
        {
          "internalType": "bytes32",
          "name": "",
          "type": "bytes32"
        }
      ],
      "name": "credentials",
      "outputs": [
        {
          "internalType": "string",
          "name": "credentialID",
          "type": "string"
        },
        {
          "internalType": "address",
          "name": "issuer",
          "type": "address"
        },
        {
          "internalType": "uint256",
          "name": "timestamp",
          "type": "uint256"
        },
        {
          "internalType": "bool",
          "name": "valid",
          "type": "bool"
        },
        {
          "internalType": "bool",
          "name": "exists",
          "type": "bool"
        }
      ],
      "stateMutability": "view",
      "type": "function"
    },
    {
      "inputs": [
        {
          "internalType": "string",
          "name": "_credentialID",
          "type": "string"
        }
      ],
      "name": "getCredentialInfo",
      "outputs": [
        {
          "components": [
            {
              "internalType": "string",
              "name": "credentialID",
              "type": "string"
            },
            {
              "internalType": "address",
              "name": "issuer",
              "type": "address"
            },
            {
              "internalType": "uint256",
              "name": "timestamp",
              "type": "uint256"
            },
            {
              "internalType": "bool",
              "name": "valid",
              "type": "bool"
            },
            {
              "internalType": "bool",
              "name": "exists",
              "type": "bool"
            }
          ],
          "internalType": "struct CredentialRegistry.Credential",
          "name": "",
          "type": "tuple"
        }
      ],
      "stateMutability": "view",
      "type": "function"
    },
    {
      "inputs": [
        {
          "internalType": "string",
          "name": "_credentialID",
          "type": "string"
        }
      ],
      "name": "getCredentialStatus",
      "outputs": [
        {
          "internalType": "string",
          "name": "",
          "type": "string"
        }
      ],
      "stateMutability": "view",
      "type": "function"
    },
    {
      "inputs": [
        {
          "internalType": "string",
          "name": "_credentialID",
          "type": "string"
        }
      ],
      "name": "isCredentialValid",
      "outputs": [
        {
          "internalType": "bool",
          "name": "",
          "type": "bool"
        }
      ],
      "stateMutability": "view",
      "type": "function"
    },
    {
      "inputs": [],
      "name": "owner",
      "outputs": [
        {
          "internalType": "address",
          "name": "",
          "type": "address"
        }
      ],
      "stateMutability": "view",
      "type": "function"
    },
    {
      "inputs": [
        {
          "internalType": "string",
          "name": "_credentialID",
          "type": "string"
        }
      ],
      "name": "registerCredential",
      "outputs": [],
      "stateMutability": "nonpayable",
      "type": "function"
    },
    {
      "inputs": [
        {
          "internalType": "string",
          "name": "_credentialID",
          "type": "string"
        }
      ],
      "name": "revokeCredential",
      "outputs": [],
      "stateMutability": "nonpayable",
      "type": "function"
    }
  ],
  "bytecode": "0x608060405234801561001057600080fd5b50336000806101000a81548173ffffffffffffffffffffffffffffffffffffffff021916908373ffffffffffffffffffffffffffffffffffffffff1602179055506113f8806100606000396000f3fe608060405234801561001057600080fd5b506004361061007d5760003560e01c80637e6712591161005b5780637e671259146101025780638da5cb5b1461011e578063c994edf31461013c578063d37428ef1461016c5761007d565b8063299d0348146100825780633ec4ec2e146100b65780635e9a2d28146100e6575b600080fd5b61009c60048036038101906100979190610a40565b61019c565b6040516100ad959493929190610b72565b60405180910390f35b6100d060048036038101906100cb9190610d01565b610294565b6040516100dd9190610d4a565b60405180910390f35b61010060048036038101906100fb9190610d01565b6103ca565b005b61011c60048036038101906101179190610d01565b61053e565b005b610126610721565b6040516101339190610d6c565b60405180910390f35b61015660048036038101906101519190610d01565b610745565b6040516101639190610d87565b60405180910390f35b61018660048036038101906101819190610d01565b6107c9565b6040516101939190610e8f565b60405180910390f35b60016020528060005260406000206000915090508060000180546101bf90610ee0565b80601f01602080910402602001604051908101604052809291908181526020018280546101eb90610ee0565b80156102385780601f1061020d57610100808354040283529160200191610238565b820191906000526020600020905b81548152906001019060200180831161021b57829003601f168201915b5050505050908060010160009054906101000a900473ffffffffffffffffffffffffffffffffffffffff16908060020154908060030160009054906101000a900460ff16908060030160019054906101000a900460ff16905085565b60606000826040516020016102a99190610f4d565b6040516020818303038152906040528051906020012090506001600082815260200190815260200160002060030160019054906101000a900460ff16610327576040518060400160405280600981526020017f6e6f7420666f756e6400000000000000000000000000000000000000000000008152509150506103c5565b6001600082815260200190815260200160002060030160009054906101000a900460ff1661038a576040518060400160405280600781526020017f7265766f6b6564000000000000000000000000000000000000000000000000008152506103c1565b6040518060400160405280600681526020017f61637469766500000000000000000000000000000000000000000000000000008152505b9150505b919050565b6000816040516020016103dd9190610f4d565b6040516020818303038152906040528051906020012090506001600082815260200190815260200160002060030160019054906101000a900460ff16610458576040517f08c379a000000000000000000000000000000000000000000000000000000000815260040161044f90610fb0565b60405180910390fd5b6001600082815260200190815260200160002060030160009054906101000a900460ff166104bb576040517f08c379a00000000000000000000000000000000000000000000000000000000081526004016104b29061101c565b60405180910390fd5b60006001600083815260200190815260200160002060030160006101000a81548160ff0219169083151502179055503373ffffffffffffffffffffffffffffffffffffffff167f9f9819d32ae627dacfe9bddc3fcee5b251647014bc38529c59325a49747c4f8f834260405161053292919061103c565b60405180910390a25050565b6000816040516020016105519190610f4d565b6040516020818303038152906040528051906020012090506001600082815260200190815260200160002060030160019054906101000a900460ff16156105cd576040517f08c379a00000000000000000000000000000000000000000000000000000000081526004016105c4906110b8565b60405180910390fd5b6040518060a001604052808381526020013373ffffffffffffffffffffffffffffffffffffffff168152602001428152602001600115158152602001600115158152506001600083815260200190815260200160002060008201518160000190816106389190611284565b5060208201518160010160006101000a81548173ffffffffffffffffffffffffffffffffffffffff021916908373ffffffffffffffffffffffffffffffffffffffff1602179055506040820151816002015560608201518160030160006101000a81548160ff02191690831515021790555060808201518160030160016101000a81548160ff0219169083151502179055509050503373ffffffffffffffffffffffffffffffffffffffff167f10ea04f90964d6096101e9e4d6574eeb9a1dd17e118a88daa46e752130d3939c834260405161071592919061103c565b60405180910390a25050565b60008054906101000a900473ffffffffffffffffffffffffffffffffffffffff1681565b600080826040516020016107599190610f4d565b6040516020818303038152906040528051906020012090506001600082815260200190815260200160002060030160019054906101000a900460ff1680156107c157506001600082815260200190815260200160002060030160009054906101000a900460ff165b915050919050565b6107d16109ad565b6000826040516020016107e49190610f4d565b6040516020818303038152906040528051906020012090506001600082815260200190815260200160002060030160019054906101000a900460ff1661085f576040517f08c379a0000000000000000000000000000000000000000000000000000000008152600401610856906113a2565b60405180910390fd5b600160008281526020019081526020016000206040518060a001604052908160008201805461088d90610ee0565b80601f01602080910402602001604051908101604052809291908181526020018280546108b990610ee0565b80156109065780601f106108db57610100808354040283529160200191610906565b820191906000526020600020905b8154815290600101906020018083116108e957829003601f168201915b505050505081526020016001820160009054906101000a900473ffffffffffffffffffffffffffffffffffffffff1673ffffffffffffffffffffffffffffffffffffffff1673ffffffffffffffffffffffffffffffffffffffff168152602001600282015481526020016003820160009054906101000a900460ff161515151581526020016003820160019054906101000a900460ff161515151581525050915050919050565b6040518060a0016040528060608152602001600073ffffffffffffffffffffffffffffffffffffffff168152602001600081526020016000151581526020016000151581525090565b6000604051905090565b600080fd5b600080fd5b6000819050919050565b610a1d81610a0a565b8114610a2857600080fd5b50565b600081359050610a3a81610a14565b92915050565b600060208284031215610a5657610a55610a00565b5b6000610a6484828501610a2b565b91505092915050565b600081519050919050565b600082825260208201905092915050565b60005b83811015610aa7578082015181840152602081019050610a8c565b60008484015250505050565b6000601f19601f8301169050919050565b6000610acf82610a6d565b610ad98185610a78565b9350610ae9818560208601610a89565b610af281610ab3565b840191505092915050565b600073ffffffffffffffffffffffffffffffffffffffff82169050919050565b6000610b2882610afd565b9050919050565b610b3881610b1d565b82525050565b6000819050919050565b610b5181610b3e565b82525050565b60008115159050919050565b610b6c81610b57565b82525050565b600060a0820190508181036000830152610b8c8188610ac4565b9050610b9b6020830187610b2f565b610ba86040830186610b48565b610bb56060830185610b63565b610bc26080830184610b63565b9695505050505050565b600080fd5b600080fd5b7f4e487b7100000000000000000000000000000000000000000000000000000000600052604160045260246000fd5b610c0e82610ab3565b810181811067ffffffffffffffff82111715610c2d57610c2c610bd6565b5b80604052505050565b6000610c406109f6565b9050610c4c8282610c05565b919050565b600067ffffffffffffffff821115610c6c57610c6b610bd6565b5b610c7582610ab3565b9050602081019050919050565b82818337600083830152505050565b6000610ca4610c9f84610c51565b610c36565b905082815260208101848484011115610cc057610cbf610bd1565b5b610ccb848285610c82565b509392505050565b600082601f830112610ce857610ce7610bcc565b5b8135610cf8848260208601610c91565b91505092915050565b600060208284031215610d1757610d16610a00565b5b600082013567ffffffffffffffff811115610d3557610d34610a05565b5b610d4184828501610cd3565b91505092915050565b60006020820190508181036000830152610d648184610ac4565b905092915050565b6000602082019050610d816000830184610b2f565b92915050565b6000602082019050610d9c6000830184610b63565b92915050565b600082825260208201905092915050565b6000610dbe82610a6d565b610dc88185610da2565b9350610dd8818560208601610a89565b610de181610ab3565b840191505092915050565b610df581610b1d565b82525050565b610e0481610b3e565b82525050565b610e1381610b57565b82525050565b600060a0830160008301518482036000860152610e368282610db3565b9150506020830151610e4b6020860182610dec565b506040830151610e5e6040860182610dfb565b506060830151610e716060860182610e0a565b506080830151610e846080860182610e0a565b508091505092915050565b60006020820190508181036000830152610ea98184610e19565b905092915050565b7f4e487b7100000000000000000000000000000000000000000000000000000000600052602260045260246000fd5b60006002820490506001821680610ef857607f821691505b602082108103610f0b57610f0a610eb1565b5b50919050565b600081905092915050565b6000610f2782610a6d565b610f318185610f11565b9350610f41818560208601610a89565b80840191505092915050565b6000610f598284610f1c565b915081905092915050565b7f43726564656e7469616c20646f6573206e6f7420657869737400000000000000600082015250565b6000610f9a601983610a78565b9150610fa582610f64565b602082019050919050565b60006020820190508181036000830152610fc981610f8d565b9050919050565b7f43726564656e7469616c20616c7265616479207265766f6b6564000000000000600082015250565b6000611006601a83610a78565b915061101182610fd0565b602082019050919050565b6000602082019050818103600083015261103581610ff9565b9050919050565b600060408201905081810360008301526110568185610ac4565b90506110656020830184610b48565b9392505050565b7f43726564656e7469616c20616c72656164792072656769737465726564000000600082015250565b60006110a2601d83610a78565b91506110ad8261106c565b602082019050919050565b600060208201905081810360008301526110d181611095565b9050919050565b60008190508160005260206000209050919050565b60006020601f8301049050919050565b600082821b905092915050565b60006008830261113a7fffffffffffffffffffffffffffffffffffffffffffffffffffffffffffffffff826110fd565b61114486836110fd565b95508019841693508086168417925050509392505050565b6000819050919050565b600061118161117c61117784610b3e565b61115c565b610b3e565b9050919050565b6000819050919050565b61119b83611166565b6111af6111a782611188565b84845461110a565b825550505050565b600090565b6111c46111b7565b6111cf818484611192565b505050565b5b818110156111f3576111e86000826111bc565b6001810190506111d5565b5050565b601f82111561123857611209816110d8565b611212846110ed565b81016020851015611221578190505b61123561122d856110ed565b8301826111d4565b50505b505050565b600082821c905092915050565b600061125b6000198460080261123d565b1980831691505092915050565b6000611274838361124a565b9150826002028217905092915050565b61128d82610a6d565b67ffffffffffffffff8111156112a6576112a5610bd6565b5b6112b08254610ee0565b6112bb8282856111f7565b600060209050601f8311600181146112ee57600084156112dc578287015190505b6112e68582611268565b86555061134e565b601f1984166112fc866110d8565b60005b82811015611324578489015182556001820191506020850194506020810190506112ff565b86831015611341578489015161133d601f89168261124a565b8355505b6001600288020188555050505b505050505050565b7f43726564656e7469616c206e6f7420666f756e64000000000000000000000000600082015250565b600061138c601483610a78565b915061139782611356565b602082019050919050565b600060208201905081810360008301526113bb8161137f565b905091905056fea2646970667358221220e9060fc28c10af8c4dcbf2e32c3fd1509dfa73f9a84f24133a1ba3c8d498fae264736f6c63430008140033",
  "linkReferences": {},
  "deployedLinkReferences": {}
}