{
  "_format": "hh-sol-artifact-1",
  "contractName": "RevocationRegistry",
  "sourceName": "contracts/RevocationRegistry.sol",
  "abi": [
    {
      "anonymous": false,
      "inputs": [
        {
          "indexed": true,
          "internalType": "address",
          "name": "oldOwner",
          "type": "address"
        },
        {
          "indexed": true,
          "internalType": "address",
          "name": "newOwner",
          "type": "address"
        }
      ],
      "name": "OwnershipTransferred",
      "type": "event"
    },
    {
      "anonymous": false,
      "inputs": [
        {
          "indexed": false,
          "internalType": "string",
          "name": "credentialID",
          "type": "string"
        },
        {
          "indexed": true,
          "internalType": "address",
          "name": "issuer",
          "type": "address"
        },
        {
          "indexed": false,
          "internalType": "uint256",
          "name": "timestamp",
          "type": "uint256"
        }
      ],
      "name": "RevocationLogged",
      "type": "event"
    },
    {
      "inputs": [
        {
          "internalType": "string",
          "name": "credentialID",
          "type": "string"
        },
        {
          "internalType": "address",
          "name": "issuer",
          "type": "address"
        }
      ],
      "name": "logRevocation",
      "outputs": [],
      "stateMutability": "nonpayable",
      "type": "function"
    },
    {
      "inputs": [],
      "name": "owner",
      "outputs": [
        {
          "internalType": "address",
          "name": "",
          "type": "address"
        }
      ],
      "stateMutability": "view",
      "type": "function"
    },
    {
      "inputs": [
        {
          "internalType": "address",
          "name": "newOwner",
          "type": "address"
        }
      ],
      "name": "transferOwnership",
      "outputs": [],
      "stateMutability": "nonpayable",
      "type": "function"
    }
  ],
  "bytecode": "0x608060405234801561001057600080fd5b50336000806101000a81548173ffffffffffffffffffffffffffffffffffffffff021916908373ffffffffffffffffffffffffffffffffffffffff16021790555061079d806100606000396000f3fe608060405234801561001057600080fd5b50600436106100415760003560e01c80638da5cb5b14610046578063ecb9496414610064578063f2fde38b14610080575b600080fd5b61004e61009c565b60405161005b919061039d565b60405180910390f35b61007e6004803603810190610079919061053e565b6100c0565b005b61009a6004803603810190610095919061059a565b6101a2565b005b60008054906101000a900473ffffffffffffffffffffffffffffffffffffffff1681565b60008054906101000a900473ffffffffffffffffffffffffffffffffffffffff1673ffffffffffffffffffffffffffffffffffffffff163373ffffffffffffffffffffffffffffffffffffffff161461014e576040517f08c379a000000000000000000000000000000000000000000000000000000000815260040161014590610624565b60405180910390fd5b8073ffffffffffffffffffffffffffffffffffffffff167fd94c734e94f05f3926b68a549a178b748737bd3cdc987302ed86acdeebbb12a383426040516101969291906106cb565b60405180910390a25050565b60008054906101000a900473ffffffffffffffffffffffffffffffffffffffff1673ffffffffffffffffffffffffffffffffffffffff163373ffffffffffffffffffffffffffffffffffffffff1614610230576040517f08c379a000000000000000000000000000000000000000000000000000000000815260040161022790610624565b60405180910390fd5b600073ffffffffffffffffffffffffffffffffffffffff168173ffffffffffffffffffffffffffffffffffffffff160361029f576040517f08c379a000000000000000000000000000000000000000000000000000000000815260040161029690610747565b60405180910390fd5b8073ffffffffffffffffffffffffffffffffffffffff1660008054906101000a900473ffffffffffffffffffffffffffffffffffffffff1673ffffffffffffffffffffffffffffffffffffffff167f8be0079c531659141344cd1fd0a4f28419497f9722a3daafe3b4186f6b6457e060405160405180910390a3806000806101000a81548173ffffffffffffffffffffffffffffffffffffffff021916908373ffffffffffffffffffffffffffffffffffffffff16021790555050565b600073ffffffffffffffffffffffffffffffffffffffff82169050919050565b60006103878261035c565b9050919050565b6103978161037c565b82525050565b60006020820190506103b2600083018461038e565b92915050565b6000604051905090565b600080fd5b600080fd5b600080fd5b600080fd5b6000601f19601f8301169050919050565b7f4e487b7100000000000000000000000000000000000000000000000000000000600052604160045260246000fd5b61041f826103d6565b810181811067ffffffffffffffff8211171561043e5761043d6103e7565b5b80604052505050565b60006104516103b8565b905061045d8282610416565b919050565b600067ffffffffffffffff82111561047d5761047c6103e7565b5b610486826103d6565b9050602081019050919050565b82818337600083830152505050565b60006104b56104b084610462565b610447565b9050828152602081018484840111156104d1576104d06103d1565b5b6104dc848285610493565b509392505050565b600082601f8301126104f9576104f86103cc565b5b81356105098482602086016104a2565b91505092915050565b61051b8161037c565b811461052657600080fd5b50565b60008135905061053881610512565b92915050565b60008060408385031215610555576105546103c2565b5b600083013567ffffffffffffffff811115610573576105726103c7565b5b61057f858286016104e4565b925050602061059085828601610529565b9150509250929050565b6000602082840312156105b0576105af6103c2565b5b60006105be84828501610529565b91505092915050565b600082825260208201905092915050565b7f4e6f7420746865206f776e657200000000000000000000000000000000000000600082015250565b600061060e600d836105c7565b9150610619826105d8565b602082019050919050565b6000602082019050818103600083015261063d81610601565b9050919050565b600081519050919050565b60005b8381101561066d578082015181840152602081019050610652565b60008484015250505050565b600061068482610644565b61068e81856105c7565b935061069e81856020860161064f565b6106a7816103d6565b840191505092915050565b6000819050919050565b6106c5816106b2565b82525050565b600060408201905081810360008301526106e58185610679565b90506106f460208301846106bc565b9392505050565b7f496e76616c696420616464726573730000000000000000000000000000000000600082015250565b6000610731600f836105c7565b915061073c826106fb565b602082019050919050565b6000602082019050818103600083015261076081610724565b905091905056fea2646970667358221220166e754a6975277730af34462c0b3ea8200a6c0b24fe2553eb6afe4b13b3b96a64736f6c63430008140033",
  "linkReferences": {},
  "deployedLinkReferences": {}
}